:020000040800F2
:10000000183F0020854C0008B1040008B304000824
:10001000B7040008BB040008BF040008000000008B
:10002000000000000000000000000000C304000801
:10003000C504000800000000C7040008C904000847
:100040009F4C00089F4C00089F4C00089F4C0008E4
:100050009F4C00089F4C00089F4C00089F4C0008D4
:100060009F4C00089F4C00089F4C00089F4C0008C4
:100070009F4C00089F4C00089F4C00089F4C0008B4
:10008000B13700089F4C00089F4C00089F4C0008A7
:10009000F93300089F4C00089F4C00089F4C000853
:1000A0009F4C00089F4C00089F4C00089F4C000884
:1000B0009F4C00089F4C00089F4C00089F4C000874
:1000C0009F4C00089F4C00089F4C00089F4C000864
:1000D0009F4C00089F4C00089F4C00089F4C000854
:1000E0009F4C00089F4C00089F4C00089F4C000844
:1000F0009F4C00089F4C00089F4C00089F4C000834
:100100009F4C00089F4C00089F4C00089F4C000823
:10011000033C00089F4C00089F4C00089F4C0008BF
:100120009F4C00089F4C00089F4C00089F4C000803
:100130009F4C00089F4C00089F4C00089336000815
:100140006F3600089F4C00089F4C00089F4C000829
:100150009F4C00089F4C00089F4C00089F4C0008D3
:100160009F4C00089F4C00089F4C00089F4C0008C3
:100170009F4C00089F4C00089F4C00089F4C0008B3
:100180009F4C00089F4C000800F002F800F060F857
:100190000AA090E8000C82448344AAF10107DA45E2
:1001A00001D100F055F8AFF2090EBAE80F0013F0D4
:1001B000010F18BFFB1A43F0010318478C570100C9
:1001C000AC5701000A444FF0000C10F8013B13F04B
:1001D000070408BF10F8014B1D1108BF10F8015BA0
:1001E000641E05D010F8016B641E01F8016BF9D193
:1001F00013F0080F1EBF10F8014BAD1C0C1B09D1EA
:100200006D1E58BF01F801CBFAD505E014F8016B5B
:1002100001F8016B6D1EF9D59142D6D370470000ED
:100220000023002400250026103A28BF78C1FBD8FF
:10023000520728BF30C148BF0B6070471FB513F08D
:1002400092F89DE8030011F0CFFC1FBD10B510BD62
:1002500011F035FD1146FFF7F1FF00F058F811F0ED
:1002600053FD03B4FFF7F2FF03BC05F0FFFC0000F1
:1002700010B5704890ED080AB0EE402A6E48D0EDF7
:10028000002A6E48D0ED001A6D4890ED001A6D48B6
:1002900090ED000AF8EEC00A6B4890ED000AB8EE47
:1002A000C00A03F080FD10BD10B5684890ED4C2ADF
:1002B000F0EE421A90ED4A2AB0EE421A90ED442A2E
:1002C000F0EE420A90ED432AB0EE420A6048D0EDCB
:1002D000002A604890ED002A03F065FD10BD10B5BE
:1002E0005D4890ED020AF0EE402A534890ED002A56
:1002F0005A48D0ED001A5A4890ED001A5948D0EDEE
:10030000000A594890ED000A03F04DFD10BD00F0C1
:1003100090F94E4801F0C6F806F02DFB02F073FC90
:1003200000F040F95149086083E000F09FF950481F
:1003300090ED090A404880ED000A4E4890ED010A10
:100340004D4880ED000A4D4890ED500A4C4880ED34
:10035000000A3B4890ED000AB1EE400A494880EDA2
:10036000000A344890ED080A474880ED000A3748F3
:1003700090ED580A454880ED000A344890ED0D0A8A
:10038000434880ED000A3A4890ED000A364880ED77
:10039000000A3A4890ED0D0A324880ED000A3748CD
:1003A00090ED0A0A3B4880ED000A344890ED0C0AB3
:1003B000394880ED000A314890ED0B0A374880ED4E
:1003C000000A2C4890ED0F0A354880ED000A1F48BE
:1003D00090ED3A0AB1EE400A1E4880ED000A1B4833
:1003E00090ED3B0AB1EE400A2E4880ED000A174816
:1003F00090ED4A0A164880ED000A144890ED4C0A28
:10040000294880ED000A114890ED3D0AD0ED000A20
:1004100020EE200A124880ED000A0C4890ED4D0AAB
:100420000E4880ED000A094890ED380A1F4880ED1B
:10043000000A7AE7F436002004000020C0070020FC
:10044000840000201C080020180800209C080020C0
:10045000340000202C000020CC3700204800002071
:100460004400002040000020180000200000002070
:1004700080350020DC0D0020080000209C0C0020AE
:100480000C000020100000201C0000202000002094
:100490001400002024000020280000203C00002040
:1004A00058000020300000203800002060000020AC
:1004B000704700BFFEE700BFFEE700BFFEE700BFDA
:1004C000FEE770477047704702480068401C0149CA
:1004D000086070476800002030B50146481EB0F142
:1004E000807F01D3012030BD481E4FF0E0225061D3
:1004F00050170F22002807DA13071D0E914B00F04A
:100500000F04241F1D5503E013071C0E8E4B1C54B3
:1005100000BF00204FF0E022906107201061002012
:10052000E1E7F0EE401AF4EEE01AF1EE10FA02D232
:10053000B0EE600A7047F4EEC11AF1EE10FA02DD77
:10054000B0EE410AF6E7B0EE610AF3E703468B42EC
:1005500001DA08467047934201DD1046FAE7184673
:10056000F8E703468B4201DA08467047934201DD03
:100570001046FAE71846F8E703468B4201DA0846C8
:100580007047934201DD1046FAE71846F8E71FB5B9
:10059000684603F03CFF6D490098B0FBF1F06C49F0
:1005A00008601FBD00BF6B4801684FF0E020826902
:1005B000684800688142F6D16548006800EB400356
:1005C000C3EBC010C2EBC000614B1B68B0FBF3F083
:1005D00001EB4103C3EBC11300EBC300704730B51F
:1005E0000446FFF7DFFF054600BFFFF7DBFF401BB8
:1005F000A042FAD330BD10B5044603E04FF47A7040
:10060000FFF7EDFF201EA4F10104F7D110BD514802
:100610000068704710B5FFF7BAFF4F4800684FF405
:100620007A71B0FBF1F42046FFF756FF10BD70471A
:10063000704710B503F00CFAFFF7A9FF46480068B1
:100640004FF47A71B0FBF1F42046FFF745FFFFF756
:10065000EFFF02F0DFFC02F079FF03F029F803F06E
:10066000CBF903F085FA06F077FD10BD00B585B033
:10067000FFF798FF3949086008460068384909685B
:10068000401A1FD43548006800F57A703449086074
:1006900034483549354B364ACDE90010354936489E
:1006A00006F0F2FD2F483049304A314BCDE9013296
:1006B000CDE903102F48304B304A31490090314882
:1006C00006F021FF254800682F490968401A0FD419
:1006D0002248006800F5FA602B4908602B48006842
:1006E000012805D102F0D6F805F018FB05F06BFCE7
:1006F0001A48006826490968401A0BD41748006850
:1007000000F57A602249086020480068012801D17C
:1007100005F0B1FF114800681E490968401A0ED45F
:100720000E48006843F2B06108441A49086017484F
:100730000068012803D106F021F8FFF7D0FD05B0CD
:1007400000BD000018ED00E000E400E040420F00B2
:100750006C00002068000020FC060020A80000209B
:10076000AC0000209800002096000020940000209B
:1007700082000020800000207E0000208C000020ED
:100780008800002084000020B00000209C00002091
:10079000B8000020B4000020B0EE401A80ED031A2B
:1007A000C0ED040A90ED030A90ED042A30EE420AEF
:1007B00080ED050A90ED050AB5EEC00AF1EE10FADB
:1007C00002DD90ED050A03E090ED050AB1EE400A66
:1007D00090ED062AB4EEC20AF1EE10FA03D89FEDAE
:1007E000FE0A80ED050A90ED080A90ED052A30EE2C
:1007F000020A80ED080A90ED050A90ED072A70EED6
:10080000421A90ED080A90ED092AB4EEC20AF1EE00
:1008100010FA03DB90ED090A80ED080A90ED080A52
:1008200090ED092AB1EE422AB4EEC20AF1EE10FAB6
:1008300005D890ED090AB1EE400A80ED080A90ED66
:10084000050A90ED002A20EE020A80ED0A0A90EDDA
:10085000080A90ED012A20EE020A80ED0B0A90EDC5
:10086000020A20EE210A80ED0C0A90ED050A80EDC7
:10087000070A90ED0A0A90ED0B2A30EE020A90ED7D
:100880000C2A30EE020A80ED0D0A90ED0D0A90ED73
:100890000E2AB4EEC20AF1EE10FA03DB90ED0E0A56
:1008A00080ED0D0A90ED0D0A90ED0E2AB1EE422A70
:1008B000B4EEC20AF1EE10FA05D890ED0E0AB1EED0
:1008C000400A80ED0D0A90ED0D0A7047F0EE400AE7
:1008D000C0ED050A90ED050AB5EEC00AF1EE10FA7A
:1008E00002DD90ED050A03E090ED050AB1EE400A45
:1008F00090ED061AB4EEC10AF1EE10FA03D89FED9E
:10090000B60A80ED050A90ED080A90ED051A30EE62
:10091000010A80ED080A90ED080A90ED091AB4EE7C
:10092000C10AF1EE10FA03DB90ED090A80ED080A26
:1009300090ED080A90ED091AB1EE411AB4EEC10A21
:10094000F1EE10FA05D890ED090AB1EE400A80EDFB
:10095000080A90ED050A90ED001A20EE010A80EDDC
:100960000A0A90ED080A90ED011A20EE010A80EDC6
:100970000B0A90ED0A0A90ED0B1A30EE010A80ED99
:100980000D0A90ED0D0A90ED0E1AB4EEC10AF1EECB
:1009900010FA03DB90ED0E0A80ED0D0A90ED0D0AC2
:1009A00090ED0E1AB1EE411AB4EEC10AF1EE10FA52
:1009B00005D890ED0E0AB1EE400A80ED0D0A90EDDB
:1009C0000D0A7047B0EE401A00EB811282ED031A57
:1009D00000EB8112C2ED040A00EB811292ED030AD2
:1009E00000EB811292ED042A30EE420A00EB8112F4
:1009F00082ED050A00EB811292ED050AB5EEC00A00
:100A0000F1EE10FA04DD00EB811292ED050A05E02B
:100A100000EB811292ED050AB1EE400A00EB811263
:100A200092ED062AB4EEC20AF1EE10FA05D89FED57
:100A30006A0A00EB811282ED050A00EB811292ED49
:100A4000080A00EB811292ED052A30EE020A00EB53
:100A5000811282ED080A00EB811292ED050A00EB8B
:100A6000811292ED072A70EE421A00EB811292ED8C
:100A7000080A00EB811292ED092AB4EEC20AF1EEE7
:100A800010FA07DB00EB811292ED090A00EB8112EC
:100A900082ED080A00EB811292ED080A00EB811248
:100AA00092ED092AB1EE422AB4EEC20AF1EE10FA32
:100AB00009D800EB811292ED090AB1EE400A00EB71
:100AC000811282ED080A00EB811292ED050A00EB1B
:100AD000811292ED002A20EE020A00EB811282EDD3
:100AE0000A0A00EB811292ED080A00EB811292EDE6
:100AF000012A20EE020A00EB811282ED0B0A00EBC4
:100B0000811292ED020A20EE210A00EB811282EDA1
:100B10000C0A00EB811292ED050A00EB811282EDC6
:100B2000070A00EB811292ED0A0A00EB811292EDA6
:100B30000B2A30EE020A00EB811292ED0C2A30EE05
:100B4000020A00EB811282ED0D0A00EB811292ED98
:100B50000D0A00EB811292ED0E2AB4EEC20AF1EEFC
:100B600010FA07DB00EB811292ED0E0A00EB811206
:100B700082ED0D0A00EB811292ED0D0A00EB81125D
:100B800092ED0E2AB1EE422AB4EEC20AF1EE10FA4C
:100B900009D800EB811292ED0E0AB1EE400A00EB8B
:100BA000811282ED0D0A00EB811292ED0D0A704761
:100BB00070B52DED048B05460C46B0EE408AF0EE84
:100BC000608A05EB841080ED038A05EB8410C0ED8C
:100BD000048A05EB841001E00000000090ED030A98
:100BE00005EB8410D0ED040A30EE600A05EB8410AA
:100BF00080ED050A05EB841090ED050AB5EEC00AFC
:100C0000F1EE10FA04DD05EB841090ED050A05E025
:100C100005EB841090ED050AB1EE400A05EB841057
:100C2000D0ED060AB4EEE00AF1EE10FA05D81FED99
:100C3000160A05EB841080ED050A05EB841090ED93
:100C4000080A05EB8410D0ED050A30EE200A05EB0A
:100C5000841080ED080A05EB841090ED050A05EB81
:100C60008410D0ED070A30EE609A05EB841090ED09
:100C7000080A05EB8410D0ED090AB4EEE00AF1EEA3
:100C800010FA07DB05EB841090ED090A05EB8410E0
:100C900080ED080A05EB841090ED080A05EB84103E
:100CA000D0ED090AF1EE600AB4EEE00AF1EE10FAB6
:100CB00009D805EB841090ED090AB1EE400A05EB66
:100CC000841080ED080A05EB841090ED050A05EB11
:100CD0008410D0ED000A20EE200A05EB841080ED90
:100CE0000A0A05EB8411D1ED0A0AB0EE600A04EBA2
:100CF000440101EBC401FE4A02EB810001F0D2FE87
:100D000005EB841080ED0A0A05EB841090ED080ACB
:100D100005EB8410D0ED010A20EE200A05EB8410CB
:100D200080ED0B0A05EB841090ED020A20EE090A13
:100D300005EB841080ED0C0A05EB841090ED050A9C
:100D400005EB841080ED070A05EB841090ED0A0A8C
:100D500005EB8410D0ED0B0A30EE200A05EB841071
:100D6000D0ED0C0A30EE200A05EB841080ED0D0A60
:100D700005EB841090ED0D0A05EB8410D0ED0E0A02
:100D8000B4EEE00AF1EE10FA07DB05EB841090ED0B
:100D90000E0A05EB841080ED0D0A05EB841090ED32
:100DA0000D0A05EB8410D0ED0E0AF1EE600AB4EEE8
:100DB000E00AF1EE10FA09D805EB841090ED0E0A66
:100DC000B1EE400A05EB841080ED0D0A05EB8410AE
:100DD00090ED0D0ABDEC048B70BDB0EE401A00EB37
:100DE0008112C2ED030A00EB811282ED041A00EBBE
:100DF000811292ED030A00EB8112D2ED041A30EE5B
:100E0000610A00EB811282ED050A00EB811292ED7E
:100E1000050A00EB8112D2ED071A30EE610A00EBF1
:100E2000811282ED0F0A00EB811292ED050A00EBB0
:100E30008112D2ED001A20EE210A00EB811282ED20
:100E40000A0A00EB811292ED020A00EB8112D2ED48
:100E50000F1A20EE210A00EB811282ED0C0A00EB42
:100E6000811292ED0A0A00EB8112D2ED0C1A30EEDB
:100E7000210A00EB8112D2ED0D1A30EE210A00EBAF
:100E8000811282ED0D0A00EB811292ED050A00EB52
:100E9000811282ED070A00EB811292ED0D0A00EB40
:100EA0008112D2ED0E1AB4EEE10AF1EE10FA04DD71
:100EB00000EB811292ED0E0A19E000EB811292ED27
:100EC0000D0A00EB8112D2ED0E1AF1EE611AB4EEAA
:100ED000E10AF1EE10FA06D200EB811292ED0E0A51
:100EE000B1EE400A03E000EB811292ED0D0A00EB37
:100EF000811282ED0D0A00EB811292ED0D0A70470E
:100F0000F0EE401A31EEC10A00EB811282ED050AC3
:100F100000EB811292ED080A00EB811292ED052A96
:100F200030EE020A00EB811282ED080A00EB81121A
:100F300092ED080A00EB811292ED092AB4EEC20A82
:100F4000F1EE10FA04DD00EB811292ED090A19E0CE
:100F500000EB811292ED080A00EB811292ED092A52
:100F6000B1EE422AB4EEC20AF1EE10FA06D200EB5C
:100F7000811292ED090AB1EE400A03E000EB811202
:100F800092ED080A00EB811282ED080A00EB811253
:100F900092ED050A00EB811292ED002A20EE020A82
:100FA00000EB811282ED0A0A00EB811292ED080A31
:100FB00000EB811292ED012A20EE020A00EB811271
:100FC00082ED0B0A00EB811292ED020A20EE200A5C
:100FD00000EB811282ED0C0A00EB811292ED0A0AFD
:100FE00000EB811292ED0B2A30EE020A00EB811227
:100FF00092ED0C2A30EE020A00EB811282ED0D0A0E
:1010000000EB811292ED0D0A00EB811292ED0E2A97
:10101000B4EEC20AF1EE10FA04DD00EB811292ED9B
:101020000E0A19E000EB811292ED0D0A00EB81121D
:1010300092ED0E2AB1EE422AB4EEC20AF1EE10FA97
:1010400006D200EB811292ED0E0AB1EE400A03E0E7
:1010500000EB811292ED0D0A00EB811282ED0D0A78
:1010600000EB811292ED0D0A7047F0EE400A00EBA2
:10107000811292ED050A9FED1F1A20EE010A00EB86
:10108000811282ED050A00EB811292ED050A9FEDB7
:101090001A1A00EE810A00EB811282ED050A00EBBC
:1010A000811292ED000A9FED151AC0EE011A00EBB5
:1010B0008112C2ED011A00EB811292ED080A00EBD9
:1010C000811292ED051A30EE010A00EB811282EDD9
:1010D000080A00EB811292ED080A00EB811292EDF2
:1010E000091AB4EEC10AF1EE10FA0EDD08E00000B4
:1010F000281000206666263F3333B33E0000484385
:1011000000EB811292ED090A19E000EB811292EDD9
:10111000080A00EB811292ED091AB1EE411AB4EE01
:10112000C10AF1EE10FA06D200EB811292ED090A23
:10113000B1EE400A03E000EB811292ED080A00EBE9
:10114000811282ED080A00EB811292ED050A00EB94
:10115000811292ED071A30EE410A00EB811282ED06
:101160000F0A00EB811292ED050A00EB811292ED5D
:10117000001A20EE010A00EB811282ED0A0A00EB50
:10118000811292ED080A00EB811292ED011A20EE15
:10119000010A00EB811282ED0B0A00EB811292ED45
:1011A000020A00EB811292ED0F1A20EE010A00EB09
:1011B000811282ED0C0A00EB811292ED050A00EB20
:1011C000811282ED070A00EB811292ED0A0A00EB10
:1011D000811292ED0B1A30EE010A00EB811292EDB2
:1011E0000C1A30EE010A00EB811282ED0D0A00EBC1
:1011F000811292ED0D0A00EB811292ED0E1AB4EEFF
:10120000C10AF1EE10FA04DD00EB811292ED0E0A34
:1012100019E000EB811292ED0D0A00EB811292EDC4
:101220000E1AB1EE411AB4EEC10AF1EE10FA06D26E
:1012300000EB811292ED0E0AB1EE400A03E000EBE2
:10124000811292ED0D0A00EB811282ED0D0A00EB86
:10125000811292ED0D0A704770B52DED068B054693
:101260000C46F0EE408AB0EE609AF0EE419AB0EE95
:10127000618AB0EE42AAF0EE62AA05EB8410C0EDDE
:10128000038A39EE290A05EB841080ED040A05EB88
:10129000841090ED070AB0EE401AB0EE6A2AF0EE24
:1012A0004A1AF748D0ED000AB0EE480A01F06FFE86
:1012B00005EB8411D1ED030A05EB841191ED041ABD
:1012C00070EEC10AB0EE600A04EB440101EBC40108
:1012D000EC4A02EB810001F0E5FB05EB841080EDA8
:1012E000050A05EB841090ED050AB5EEC00AF1EE93
:1012F00010FA04DD05EB841090ED050A05E005EB1E
:10130000841090ED050AB1EE400A05EB8410D0ED93
:10131000060AB4EEE00AF1EE10FA05D89FEDDA0AFB
:1013200005EB841080ED050A05EB841090ED080AAA
:1013300005EB8410D0ED050A30EE200A05EB841091
:1013400080ED080A05EB841090ED080A05EB841087
:10135000D0ED090AB4EEE00AF1EE10FA07DB05EB76
:10136000841090ED090A05EB841080ED080A05EB66
:10137000841090ED080A05EB8410D0ED090AF1EE17
:10138000600AB4EEE00AF1EE10FA09D805EB841019
:1013900090ED090AB1EE400A05EB841080ED080AD1
:1013A000BA4890ED010ABA48D0ED000A30EE200AA2
:1013B00005EB841080ED000AB44890ED020AB548B0
:1013C000D0ED000A30EE200A05EB841080ED010A12
:1013D00005EB841090ED080A05EB8410D0ED010AAE
:1013E00020EE200A05EB841080ED0B0A05EB84103B
:1013F00090ED050A05EB8410D0ED000A20EE200ADE
:1014000005EB841080ED0A0A9D4890ED000A38EE45
:10141000400A05EB841080ED070A05EB841090ED7F
:101420000A0A05EB8410D0ED0B0A30EE200A05EB1A
:10143000841080ED0D0A05EB841090ED0D0A05EB8C
:101440008410D0ED0E0AB4EEE00AF1EE10FA04DDDD
:1014500005EB841090ED0E0A19E005EB841090ED79
:101460000D0A05EB8410D0ED0E0AF1EE600AB4EE21
:10147000E00AF1EE10FA06D205EB841090ED0E0AA8
:10148000B1EE400A03E005EB841090ED0D0A05EB88
:10149000841080ED0D0A05EB841090ED0D0ABDEC73
:1014A000068B70BD0146002000BF73E09FED760AF9
:1014B00001EB801282ED040A9FED730A01EB8012AA
:1014C00082ED050A9FED700A01EB801282ED070A9A
:1014D0009FED6D0A01EB801282ED080A9FED6A0A0A
:1014E00001EB801282ED0D0A9FED670A01EB80127D
:1014F00082ED030A9FED640A01EB801282ED0C0A73
:101500009FED610A01EB801282ED0B0A9FED5E0AEE
:1015100001EB801282ED0A0A9FED5B0A01EB80125B
:1015200082ED0F0A5C4A02EB800292ED000A01EBA9
:10153000801282ED000A594A02EB800292ED000A05
:1015400001EB801282ED010A554A02EB800292ED16
:10155000000A01EB801282ED020A524A02EB80027D
:1015600092ED000A01EB801282ED090A4E4A02EB6D
:10157000800292ED000A01EB801282ED0E0A4B4AC6
:1015800002EB800292ED000A01EB801282ED060A66
:10159000421CD0B21E2889DB70479FED3B0A00EB4E
:1015A000811282ED040A9FED380A00EB811282ED70
:1015B000050A9FED350A00EB811282ED070A9FEDC7
:1015C000320A00EB811282ED080A9FED2F0A00EB30
:1015D000811282ED0D0A9FED2C0A00EB811282ED43
:1015E000030A9FED290A00EB811282ED0C0A9FEDA0
:1015F000260A00EB811282ED0B0A9FED230A00EB15
:10160000811282ED0A0A9FED200A00EB811282ED21
:101610000F0A214A02EB810292ED000A00EB8112CF
:1016200082ED000A1D4A02EB810292ED000A00EBF6
:10163000811282ED010A1A4A02EB810292ED000A40
:1016400000EB811282ED020A164A02EB810292ED52
:10165000000A00EB811282ED090A134A02EB8102B3
:1016600092ED000A00EB811282ED0E0A0F4A02EBA6
:10167000810292ED000A00EB811282ED060A7047AA
:10168000840000202810002000000000A806002090
:10169000BC000020C0000020C40000203C0100204D
:1016A000B40100202C020020A40200201C03002012
:1016B000B0EE401A00EB811282ED031A00EB8112AA
:1016C000C2ED040A00EB811292ED030A00EB8112D5
:1016D000D2ED041A30EE610A00EB811282ED050AA8
:1016E00000EB811292ED050AB5EEC00AF1EE10FA98
:1016F00004DD00EB811292ED050A05E000EB81129A
:1017000092ED050AB1EE400A00EB8112D2ED061A05
:10171000B4EEE10AF1EE10FA05D81FED250A00EB50
:10172000811282ED050A00EB811292ED080A00EBAE
:101730008112D2ED051A30EE210A00EB811282ED02
:10174000080A00EB811292ED050A00EB8112D2ED3E
:10175000071A30EE610A00EB811282ED0F0A00EBEE
:10176000811292ED080A00EB8112D2ED091AB4EE53
:10177000E10AF1EE10FA07DB00EB811292ED090AA3
:1017800000EB811282ED080A00EB811292ED080A4B
:1017900000EB8112D2ED091AF1EE611AB4EEE10A02
:1017A000F1EE10FA09D800EB811292ED090AB1EEC0
:1017B000400A00EB811282ED080A00EB811292EDE3
:1017C000050A00EB8112D2ED001A20EE210A00EB8F
:1017D000811282ED0A0A00EB811292ED080A00EBF9
:1017E0008112D2ED011A20EE210A00EB811282ED66
:1017F0000B0A00EB811292ED020A00EB8112D2ED8E
:101800000F1A20EE210A00EB811282ED0C0A00EB88
:10181000811292ED050A00EB811282ED070A00EBBE
:10182000811292ED0A0A00EB8112D2ED0B1A30EE12
:10183000210A00EB8112D2ED0C1A30EE210A00EBE6
:10184000811282ED0D0A00EB811292ED0D0A00EB80
:101850008112D2ED0E1AB4EEE10AF1EE10FA07DBB6
:1018600000EB811292ED0E0A00EB811282ED0D0A5F
:1018700000EB811292ED0D0A00EB8112D2ED0E1AEF
:10188000F1EE611AB4EEE10AF1EE10FA09D800EBBC
:10189000811292ED0E0AB1EE400A00EB811282ED48
:1018A0000D0A00EB811292ED0D0A7047F0EE400A2E
:1018B00000EB8112C2ED050A00EB811292ED050AE0
:1018C000B5EEC00AF1EE10FA04DD00EB811292EDE4
:1018D000050A05E000EB811292ED050AB1EE400A1F
:1018E00000EB811292ED061AB4EEC10AF1EE10FA85
:1018F00005D81FED9B0A00EB811282ED050A00EB73
:10190000811292ED080A00EB811292ED051A30EE79
:10191000010A00EB811282ED080A00EB811292EDC0
:10192000050A00EB811292ED071A30EE410A00EB36
:10193000811282ED0F0A00EB811292ED080A00EB92
:10194000811292ED091AB4EEC10AF1EE10FA07DB2A
:1019500000EB811292ED090A00EB811282ED080A78
:1019600000EB811292ED080A00EB811292ED091A48
:10197000B1EE411AB4EEC10AF1EE10FA09D800EB4B
:10198000811292ED090AB1EE400A00EB811282ED5C
:10199000080A00EB811292ED050A00EB811292ED2C
:1019A000001A20EE010A00EB811282ED0A0A00EB18
:1019B000811292ED080A00EB811292ED011A20EEDD
:1019C000010A00EB811282ED0B0A00EB811292ED0D
:1019D000020A00EB811292ED0F1A20EE010A00EBD1
:1019E000811282ED0C0A00EB811292ED050A00EBE8
:1019F000811282ED070A00EB811292ED0A0A00EBD8
:101A0000811292ED0B1A30EE010A00EB811292ED79
:101A10000C1A30EE010A00EB811282ED0D0A00EB88
:101A2000811292ED0D0A00EB811292ED0E1AB4EEC6
:101A3000C10AF1EE10FA07DB00EB811292ED0E0AFB
:101A400000EB811282ED0D0A00EB811292ED0D0A7E
:101A500000EB811292ED0E1AB1EE411AB4EEC10AFA
:101A6000F1EE10FA09D800EB811292ED0E0AB1EEF8
:101A7000400A00EB811282ED0D0A00EB811292ED1B
:101A80000D0A704770B52DED028B05460C46B0EE81
:101A9000408AF0EE608A05EB841080ED038A05EB46
:101AA0008410C0ED048A05EB841090ED030A05EB69
:101AB0008410D0ED040A30EE600A05EB841080ED4E
:101AC000050A05EB841090ED050AB5EEC00AF1EEAB
:101AD00010FA04DD05EB841090ED050A05E005EB36
:101AE000841090ED050AB1EE400A05EB8410D0EDAC
:101AF000060AB4EEE00AF1EE10FA05D89FEDFD0AF1
:101B000005EB841080ED050A05EB841090ED080AC2
:101B100005EB8410D0ED050A30EE200A05EB8410A9
:101B200080ED080A05EB841090ED050A05EB8410A2
:101B3000D0ED070A30EE600A05EB841080ED0F0A45
:101B400005EB841090ED080A05EB8410D0ED090A2E
:101B5000B4EEE00AF1EE10FA07DB05EB841090ED2D
:101B6000090A05EB841080ED080A05EB841090ED5E
:101B7000080A05EB8410D0ED090AF1EE600AB4EE14
:101B8000E00AF1EE10FA09D805EB841090ED090A8D
:101B9000B1EE400A05EB841080ED080A05EB8410D5
:101BA00090ED050A05EB8410D0ED000A20EE200A26
:101BB00005EB841080ED0A0A05EB8411D1ED0A0AC9
:101BC000B0EE600A04EB440101EBC401CA4A02EB27
:101BD000810000F067FF05EB841080ED0A0A05EB39
:101BE000841090ED080A05EB8410D0ED010A20EE78
:101BF000200A05EB841080ED0B0A05EB841090EDB4
:101C0000020A05EB8410D0ED0F0A20EE200A05EB46
:101C1000841080ED0C0A05EB841090ED050A05EBAD
:101C2000841080ED070A05EB841090ED0A0A05EB9D
:101C30008410D0ED0B0A30EE200A05EB8410D0EDB5
:101C40000C0A30EE200A05EB841080ED0D0A05EB3E
:101C5000841090ED0D0A05EB8410D0ED0E0AB4EE61
:101C6000E00AF1EE10FA07DB05EB841090ED0E0AA6
:101C700005EB841080ED0D0A05EB841090ED0D0A44
:101C800005EB8410D0ED0E0AF1EE600AB4EEE00A26
:101C9000F1EE10FA09D805EB841090ED0E0AB1EEC2
:101CA000400A05EB841080ED0D0A05EB841090EDE1
:101CB0000D0ABDEC028B70BD70B52DED048B054691
:101CC0000C46B0EE408AF0EE608AB0EE419AF0EE3B
:101CD000619A05EB841080ED038A05EB8410C0ED5A
:101CE000048A05EB841090ED030A05EB8410D0ED17
:101CF000040A30EE600A8148D0ED000A30EE200A76
:101D000005EB841080ED050A05EB841090ED050AC3
:101D1000B5EEC00AF1EE10FA04DD05EB841090ED8B
:101D2000050A05E005EB841090ED050AB1EE400AC6
:101D300005EB8410D0ED060AB4EEE00AF1EE10FADD
:101D400005D89FED6C0A05EB841080ED050A05EBC4
:101D5000841090ED080A05EB8410D0ED010A20EE06
:101D6000200A05EB841080ED0B0A79EE290AB0EE0B
:101D7000600A04EB440101EBC4015F4A02EB8100FD
:101D800000F090FE05EB841080ED0F0A05EB841047
:101D900090ED080A05EB8410D0ED0F0A30EE200A12
:101DA00005EB841080ED080A05EB841090ED080A1D
:101DB00005EB8410D0ED090AB4EEE00AF1EE10FA5A
:101DC00004DD05EB841090ED090A19E005EB8410A1
:101DD00090ED080A05EB8410D0ED090AF1EE600AD7
:101DE000B4EEE00AF1EE10FA06D205EB841090EDA5
:101DF000090AB1EE400A03E005EB841090ED080AF1
:101E000005EB841080ED080A05EB841090ED050ABF
:101E100005EB8410D0ED000A20EE200A05EB8410BB
:101E200080ED0A0A05EB841090ED080A05EB84109A
:101E3000D0ED010A20EE200A05EB841080ED0B0A9C
:101E400005EB841090ED0F0A05EB8410D0ED020A2B
:101E500020EE200A05EB841080ED0C0A05EB8410BF
:101E600090ED0A0A05EB8410D0ED0C0A30EE200A42
:101E700005EB8410D0ED0B0A30EE200A05EB841040
:101E800080ED0D0A05EB841090ED0D0A05EB841032
:101E9000D0ED0E0AB4EEE00AF1EE10FA04DD05EB27
:101EA000841090ED0E0A19E005EB841090ED0D0AF8
:101EB00005EB8410D0ED0E0AF1EE600AB4EEE00AF4
:101EC000F1EE10FA06D205EB841090ED0E0AB1EE99
:101ED000400A03E005EB841090ED0D0A05EB841039
:101EE00080ED0D0A05EB841090ED0D0ABDEC048B1E
:101EF00070BD00000000000028100020B407002082
:101F000070B52DED048B05460C46B0EE408AF0EE20
:101F1000608AB0EE419A38EE680A5FED0A0A30EE48
:101F2000600A05EB841080ED030A05EB841090ED48
:101F3000070ADFEDFE0A20EE200A05EB8410D0ED43
:101F4000030A9FEDFB1A01EE200A05EB841080EDD9
:101F5000050A05EB841090ED080A05EB8410D0ED1E
:101F6000050A70EE890A30EE200A05EB841080ED38
:101F7000080A05EB841090ED080A05EB8410D0EDFB
:101F8000090AB4EEE00AF1EE10FA04DD05EB841064
:101F900090ED090A19E005EB841090ED080A05EBB5
:101FA0008410D0ED090AF1EE600AB4EEE00AF1EE19
:101FB00010FA06D205EB841090ED090AB1EE400A42
:101FC00003E005EB841090ED080A05EB841080ED2A
:101FD000080A05EB841090ED000ADFEDD60A80EECA
:101FE000201A05EB841080ED011A05EB8411D1ED68
:101FF000050A05EB841191ED001A60EE810AB0EE3E
:10200000600A04EB440101EBC401CB4A02EB8100FE
:1020100000F048FD05EB841080ED0A0A05EB841002
:1020200090ED080A05EB8410D0ED010A20EE200A9D
:1020300005EB841080ED0B0A05EB841090ED0A0A85
:1020400005EB8410D0ED0B0A30EE200A05EB84106E
:1020500080ED0D0A05EB841090ED050A05EB841068
:1020600080ED070A05EB841090ED0D0A05EB841056
:10207000D0ED0E0AB4EEE00AF1EE10FA04DD05EB45
:10208000841090ED0E0A19E005EB841090ED0D0A16
:1020900005EB8410D0ED0E0AF1EE600AB4EEE00A12
:1020A000F1EE10FA06D205EB841090ED0E0AB1EEB7
:1020B000400A03E005EB841090ED0D0A05EB841057
:1020C00080ED0D0A05EB841090ED0D0ABDEC048B3C
:1020D00070BD70B52DED048B05460C46B0EE408A00
:1020E000F0EE608AB0EE419A05EB841080ED038A31
:1020F00078EE890AB0EE600A04EB440101EBC401FA
:102100008D4A02EB810000F0CDFC05EB841080EDE0
:10211000040A05EB841090ED030A05EB8410D0ED62
:10212000040A30EE600A05EB841080ED050A05EB29
:10213000841090ED050AB5EEC00AF1EE10FA04DD48
:1021400005EB841090ED050A05E005EB841090ED99
:10215000050AB1EE400A05EB8410D0ED060AB4EE94
:10216000E00AF1EE10FA05D81FED9E0A05EB841087
:1021700080ED050A05EB841090ED080A05EB84104C
:10218000D0ED050A30EE200A05EB841080ED080A38
:1021900005EB841090ED080A05EB8410D0ED090AD8
:1021A000B4EEE00AF1EE10FA07DB05EB841090EDD7
:1021B000090A05EB841080ED080A05EB841090ED08
:1021C000080A05EB8410D0ED090AF1EE600AB4EEBE
:1021D000E00AF1EE10FA09D805EB841090ED090A37
:1021E000B1EE400A05EB841080ED080A05EB84107F
:1021F00090ED080A05EB8410D0ED010A20EE200ACC
:1022000005EB841080ED0B0A05EB841090ED050AB8
:1022100005EB8410D0ED070A30EE600A05EB841060
:1022200080ED0F0A05EB841090ED050A05EB841094
:10223000D0ED000A20EE200A05EB841080ED0A0A9A
:1022400005EB841090ED0F0A05EB8410D0ED020A27
:1022500020EE200A05EB841080ED0C0A05EB8410BB
:1022600090ED050A05EB841080ED070A05EB84105C
:1022700090ED0A0A05EB8410D0ED0C0A30EE200A2E
:1022800005EB8410D0ED0B0A30EE200A05EB84102C
:1022900080ED0D0A05EB841090ED0D0A05EB84101E
:1022A000D0ED0E0AB4EEE00AF1EE10FA04DD05EB13
:1022B000841090ED0E0A19E005EB841090ED0D0AE4
:1022C00005EB8410D0ED0E0AF1EE600AB4EEE00AE0
:1022D000F1EE10FA06D205EB841090ED0E0AB1EE85
:1022E000400A03E005EB841090ED0D0A05EB841025
:1022F00080ED0D0A05EB841090ED0D0ABDEC048B0A
:1023000070BDB0EE401AB1EE410A00EB811282EDD1
:10231000040A00EB8112C2ED030A00EB811292ED78
:10232000030A00EB8112D2ED041A07E03333333F86
:102330009A99993E000048432810002030EE610A27
:1023400000EB811282ED050A00EB811292ED050A85
:10235000B5EEC00AF1EE10FA04DD00EB811292ED49
:10236000050A05E000EB811292ED050AB1EE400A84
:1023700000EB8112D2ED061AB4EEE10AF1EE10FA8A
:1023800005D89FEDFE0A00EB811282ED050A00EBF5
:10239000811292ED080A00EB8112D2ED051A30EE9F
:1023A000210A00EB811282ED080A00EB811292ED06
:1023B000050A00EB8112D2ED071A30EE610A00EB3C
:1023C000811282ED0F0A00EB811292ED080A00EBF8
:1023D0008112D2ED091AB4EEE10AF1EE10FA04DD31
:1023E00000EB811292ED090A19E000EB811292EDE7
:1023F000080A00EB8112D2ED091AF1EE611AB4EE6F
:10240000E10AF1EE10FA06D200EB811292ED090A10
:10241000B1EE400A03E000EB811292ED080A00EBF6
:10242000811282ED080A00EB811292ED050A00EBA1
:102430008112D2ED001A20EE210A00EB811282ED0A
:102440000A0A00EB811292ED080A00EB8112D2ED2C
:10245000011A20EE210A00EB811282ED0B0A00EB3B
:10246000811292ED020A00EB8112D2ED0F1A20EEDA
:10247000210A00EB811282ED0C0A00EB811292ED31
:10248000050A00EB811282ED070A00EB811292ED42
:102490000A0A00EB8112D2ED0B1A30EE210A00EB92
:1024A0008112D2ED0C1A30EE210A00EB811282ED7E
:1024B0000D0A00EB811292ED0D0A00EB8112D2EDB4
:1024C0000E1AB4EEE10AF1EE10FA04DD00EB81120F
:1024D00092ED0E0A19E000EB811292ED0D0A00EB6D
:1024E0008112D2ED0E1AF1EE611AB4EEE10AF1EEAC
:1024F00010FA06D200EB811292ED0E0AB1EE400AFC
:1025000003E000EB811292ED0D0A00EB811282EDE7
:102510000D0A00EB811292ED0D0A7047F0EE402A91
:1025200000EB811292ED050AB1EE623A30EEC33A49
:1025300030EE030A00EB811282ED050A00EB8112F6
:1025400092ED050AB5EEC00AF1EE10FA04DD00EBDB
:10255000811292ED050A05E000EB811292ED050A69
:10256000B1EE400A00EB811292ED063AB4EEC30AD6
:10257000F1EE10FA05D89FED810A00EB811282ED91
:10258000050A31EE210A00EB811282ED0F0A00EB01
:10259000811292ED080AB1EE423A30EE030A00EBE6
:1025A000811282ED080A00EB811292ED080A00EB1D
:1025B000811292ED053A00EB8112D2ED003A03EE62
:1025C000230A00EB811282ED0A0A00EB811292EDE0
:1025D0000F0A00EB811292ED023A20EE030A00EBA3
:1025E000811282ED0C0A00EB811292ED0A0A00EBD7
:1025F000811292ED0C3A30EE030A00EB811292ED5B
:102600000B3A30EE030A00EB811282ED0D0A00EB6B
:10261000811292ED0D0A00EB811292ED0E3AB4EEAA
:10262000C30AF1EE10FA04DD00EB811292ED0E0AFE
:1026300019E000EB811292ED0D0A00EB811292ED90
:102640000E3AB1EE433AB4EEC30AF1EE10FA06D2F6
:1026500000EB811292ED0E0AB1EE400A03E000EBAE
:10266000811292ED0D0A00EB811282ED0D0A00EB52
:10267000811292ED0D0A7047F0EE401A00EB8112C4
:10268000C2ED051A00EB811292ED050AB5EEC00A03
:10269000F1EE10FA04DD00EB811292ED050A05E07F
:1026A00000EB811292ED050AB1EE400A00EB8112B7
:1026B00092ED062AB4EEC20AF1EE10FA05D89FEDAB
:1026C0002F0A00EB811282ED050A30EE810A00EB41
:1026D000811282ED0F0A00EB811292ED050A00EBE8
:1026E000811292ED002A20EE020A00EB811282EDA7
:1026F0000A0A00EB811292ED0F0A00EB811292EDB3
:10270000022A20EE020A00EB811282ED0C0A00EB95
:10271000811292ED0A0A00EB811292ED0C2A30EE42
:10272000020A00EB811292ED0B2A30EE020A00EB56
:10273000811282ED0D0A00EB811292ED0D0A00EB81
:10274000811292ED0E2AB4EEC20AF1EE10FA04DD07
:1027500000EB811292ED0E0A1DE000EB811292ED6A
:102760000D0A00EB811292ED0E2AB1EE422AB4EE70
:10277000C20AF1EE10FA0AD202E0000000000000E6
:1027800000EB811292ED0E0AB1EE400A03E000EB7D
:10279000811292ED0D0A00EB811282ED0D0A00EB21
:1027A000811292ED0D0A7047B0EE401A31EE200A08
:1027B00000EB811282ED050A00EB811292ED050A11
:1027C000B5EEC00AF1EE10FA04DD00EB811292EDD5
:1027D000050A05E000EB811292ED050AB1EE400A10
:1027E00000EB8112D2ED061AB4EEE10AF1EE10FA16
:1027F00005D81FED1E0A00EB811282ED050A00EBE1
:10280000811292ED050A00EB8112D2ED001A20EE42
:10281000210A00EB811282ED0A0A00EB811292ED8F
:102820000A0A00EB811282ED0D0A00EB811292ED93
:102830000D0A00EB8112D2ED0E1AB4EEE10AF1EEB0
:1028400010FA04DD00EB811292ED0E0A19E000EBA4
:10285000811292ED0D0A00EB8112D2ED0E1AF1EE0B
:10286000611AB4EEE10AF1EE10FA06D200EB811221
:1028700092ED0E0AB1EE400A03E000EB811292EDF8
:102880000D0A00EB811282ED0D0A00EB811292ED30
:102890000D0A70473F4890ED000A3F4880ED000A5E
:1028A0003E4890ED000A3E4880ED000A3D4890ED1C
:1028B000000A3948D0ED000AB4EE600AF1EE10FAD1
:1028C00007D09FED390A394880ED000A02203849C7
:1028D0000870344890ED000A2F48D0ED000AB4EE9D
:1028E000600AF1EE10FA14D1304890ED000AF7EECC
:1028F000000A30EE200A80ED000A90ED000AF3EEA7
:10290000080AB4EEE00AF1EE10FA02DD03202849CD
:102910000870214890ED000A224880ED000A254801
:1029200090ED000A1E48D0ED000AB4EE600AF1EE08
:1029300010FA07D09FED1C0A1F4880ED000A022004
:102940001B4948701B4890ED000A1548D0ED000A5D
:10295000B4EE600AF1EE10FA14D1174890ED000AB7
:10296000F7EE000A30EE200A80ED000A90ED000A32
:10297000F2EE040AB4EEE00AF1EE10FA02DD0320F2
:102980000B494870064890ED000A0A4880ED000A9D
:1029900070470000E4060020A8050020DC060020A7
:1029A000A0050020A40500200000000094050020E0
:1029B0001C1000209C050020980500200021944A4E
:1029C00011706AE09FED930A9149097801EB410289
:1029D00002EBC10100EB810181ED000A9FED8D0A40
:1029E0008B49097801EB410202EBC10100EB810147
:1029F00081ED050A8849864A127801EB820191ED42
:102A0000000A8349097801EB410202EBC10100EBA6
:102A1000810181ED080A81497D4A127801EB82012A
:102A200091ED000A7A49097801EB410202EBC101FC
:102A300000EB810181ED090AB7EE000A74490978BB
:102A400001EB410202EBC10100EB810181ED070ABC
:102A5000B7EE000A6E49097801EB410202EBC101B1
:102A600000EB810181ED0A0A6949097801EB410215
:102A700002EBC10100EB810191ED000A6449097884
:102A800001EB410202EBC10100EB810181ED010A82
:102A90005F490978491C5E4A11705D4909781E2911
:102AA00090DB7047F0EE400A90ED070A90ED001AB7
:102AB00020EE010A80ED010A90ED080A90ED071A58
:102AC000D0ED051A01EE210A80ED030A90ED030A0C
:102AD00090ED091A30EE010A90ED031AC1EE001ACA
:102AE000C0ED061A90ED010A90ED061AD0ED011A1C
:102AF00070EEE11A01EE210A80ED020A90ED060A5D
:102B0000B7EE001A31EE400A90ED031A20EE010AEA
:102B100080ED040A90ED040A80ED050A90ED020AAA
:102B200080ED000A90ED020A7047F0EE400A67223D
:102B30004A4300EB820367224A4300EB820292F889
:102B4000912103EB820292ED000A67224A4300EBD7
:102B5000820292ED651A31EE400A67224A4300EB89
:102B6000820282ED650A67224A4300EB820292EDFF
:102B7000650A30EE200A67224A4300EB820282EDAA
:102B8000650A67224A4300EB820367224A4300EB4F
:102B9000820292F8912103EB8202C2ED000A6722C1
:102BA0004A4300EB820292ED650A9FED1D1AC0EECA
:102BB000011A67224A4300EB8202C2ED661A6722BD
:102BC0004A4300EB820292F89121521CD3B2672251
:102BD0004A4300EB820282F8913167224A4300EBBC
:102BE000820292F89121642A06D1002367224A4387
:102BF00000EB820282F8913167224A4300EB8202A5
:102C000092ED660A704700B50648FFF7D7FE00BD93
:102C1000A406002000000000AC05002024060020CF
:102C20000000C84228100020F9EE0C0AB4EEE00AB9
:102C3000F1EE10FA19DBF8EE080AB4EEE00AF1EE54
:102C400010FA12D200220A6001224A609FEDEA1AAD
:102C5000F7EE000A41EE000AC0ED000ADFEDE70AD8
:102C600060EE200AC0ED010A9FE0F8EE080AB4EE1B
:102C7000E00AF1EE10FA19DBFFEE000AB4EEE00A0A
:102C8000F1EE10FA12D201220A6002224A609FED90
:102C9000DA1AF7EE000A41EE000AC0ED000ADFED95
:102CA000D70A60EE200AC0ED010A7EE0FFEE000ABE
:102CB000B4EEE00AF1EE10FA17DBB5EEC00AF1EE61
:102CC00010FA12D202220A6003224A609FEDCA1A49
:102CD000F7EE000A41EE000AC0ED000ADFEDC70A78
:102CE00060EE200AC0ED010A5FE0B5EEC00AF1EE29
:102CF00010FA19DBF7EE000AB4EEE00AF1EE10FA72
:102D000012D203220A6004224A609FEDBC1AF7EE39
:102D1000000A41EE000AC0ED000ADFEDB70A60EEDE
:102D2000200AC0ED010A40E0F7EE000AB4EEE00A26
:102D3000F1EE10FA19DBF0EE080AB4EEE00AF1EE5B
:102D400010FA12D204220A6005224A609FEDAB1AE3
:102D5000F7EE000A41EE000AC0ED000ADFEDA60A18
:102D600060EE200AC0ED010A1FE0F0EE080AB4EEA2
:102D7000E00AF1EE10FA18DBF1EE0C0AB4EEE00A0C
:102D8000F1EE10FA11D205220A6006224A609FED88
:102D90009B1AF7EE000A41EE000AC0ED000ADFEDD3
:102DA000960A60EE200AC0ED010A7047D0ED001AC5
:102DB00071EEC01AF0EE610AD0ED041A70EEE11A5D
:102DC000B0EE611AD0ED061A90ED072A71EEC21A24
:102DD000B1EE0C2A20EE822AC2EE212AC1ED002A91
:102DE000D0ED081A90ED092A71EEC21AB1EE0C2A44
:102DF00021EE022AC2EE212AC1ED012A704710B548
:102E00002DED028B8EB00446B0EE408A00200C906F
:102E10000D900A900B9008900990069007900490EE
:102E200005900CA9B0EE480A2046FFF7BFFFDDED84
:102E30000C0AB0EE600A0AA908A8FFF7F5FEDDED5E
:102E40000D0AB0EE600A06A904A8FFF7EDFE0A9885
:102E5000C0EBC0006A4901EB8000069900EB8100DD
:102E600090ED000ADDED040A20EE200A0A98C0EB7E
:102E7000C000634901EB8000079900EB8100D0EDB1
:102E8000000A9DED051A01EE200ADDED080A20EE8C
:102E9000200A0B98C0EBC000594901EB800006994D
:102EA00000EB8100D0ED000A9DED041A60EE810A6E
:102EB0000B98C0EBC000524901EB8000079900EB72
:102EC000810090ED001ADDED051A41EE810A9DEDBD
:102ED000091A01EE200A8DED010A0A98C0EBC00024
:102EE000484901EB8000069900EB810090ED000A53
:102EF000DDED040A20EE200A0A98C0EBC00041492B
:102F000001EB8000079900EB8100D0ED000A9DEDF8
:102F1000051A01EE200ADDED080A20EE200A0B98C2
:102F2000C0EBC000374901EB8000069900EB81003F
:102F3000D0ED000A9DED041A60EE810A0B98C0EBFB
:102F4000C000304901EB8000079900EB810090ED53
:102F5000001ADDED051A41EE810A9DED091A01EE18
:102F6000200A8DED020A94ED0A0ADDED010A20EE39
:102F7000200A84ED010A94ED0B0ADDED020A20EE31
:102F8000200A84ED020A0EB0BDEC028B10BD10B514
:102F90002DED068BB0EE408AF0EE609AB0EE41AABD
:102FA000F0EE618AB0EE429A174880ED008A38EE62
:102FB0004A0A80ED040A9FED150A80ED0A0A9FED8A
:102FC000140A80ED0B0A80ED069AB1EE680A80EDD6
:102FD000070AB0EE000A29EE000A80ED080AB8EEF2
:102FE000000A28EE800A80ED090AB0EE690AFFF7B0
:102FF00006FFBDEC068B10BD986E123E986E12BE99
:103000007C33010840340108A8060020295C8F3E6B
:10301000CDCCCC3D00B58BB00121082001F0C8FA21
:103020000121480601F00DFB09220121FE4801F0B3
:10303000ACF809220021FC4801F0A7F80320099010
:1030400002208DF8280000208DF82A0003208DF83A
:10305000290000208DF82B0009A9F34801F00AF897
:1030600014208DF8200000208DF8210001208DF81B
:1030700022008DF8230008A800F00BFF00208DF837
:103080001A008DF81B008DF81C008DF81D008DF8BE
:103090001E0001208DF81F0008208DF81800032065
:1030A0008DF8190000208DF816000320ADF81400EB
:1030B00000208DF8170005A9DC4801F024FF00204E
:1030C0008DF80E008DF80F0001208DF81000002003
:1030D000ADF80C0001208DF811000020ADF80400BF
:1030E000ADF80600ADF80800ADF80A0001A801F03F
:1030F00094FF01220221CD4802F08EFA0BB000BDF0
:10310000F0B585B007460D4600244FF400700090DE
:103110001220019000208DF808008DF809008DF82C
:103120000A5000BF05E0395D0DF10B000155601C30
:1031300084B2AC42F7DB6946BC4802F05DF8064653
:10314000002401E0601C84B23146B84802F0ECF87B
:1031500018B940F6FF708442F4DB40F6FF708442F9
:1031600002DB012005B0F0BD0020FBE7F0B585B023
:1031700007460D46002440F2FF10009012200190F7
:1031800000208DF808008DF809008DF80A5000BF66
:1031900005E0395D0DF10B000155601C84B2AC42B5
:1031A000F7DB6946A14802F027F80646002401E053
:1031B000601C84B231469D4802F0B6F818B940F65A
:1031C000FF708442F4DB40F6FF70844202DB012092
:1031D00005B0F0BD0020FBE7F0B585B007460D4611
:1031E000002440F2FF2000901220019000208DF872
:1031F00008008DF809008DF80A5000BF05E0395D20
:103200000DF10B000155601C84B2AC42F7DB69463E
:10321000864801F0F1FF0646002401E0601C84B2FC
:103220003146824802F080F818B940F6FF708442B7
:10323000F4DB40F6FF70844202DB012005B0F0BDF4
:103240000020FBE70246A2F201200A283DD2DFE877
:1032500000F0050C20273C3C19122E350020744B41
:1032600018700120734B187034E00120704B1870F7
:10327000704B18702EE002206D4B187001206D4BC2
:10328000187027E003206A4B18700120694B1870F2
:1032900020E00420664B18700120664B187019E07E
:1032A0000520634B18700120624B187012E000205B
:1032B000614B187002205F4B18700BE001205E4BD1
:1032C000187002205B4B187004E00420584B1870F3
:1032D0000020704700BF57480078012843D1487844
:1032E0000B7840EA032000B200EE100AB8EEC00AE4
:1032F0004F48007800EBC000504B03EB800080ED9E
:10330000010AC8788B7840EA032000B200EE100A68
:10331000B8EEC00A4648007800EBC000474B03EB0C
:10332000800080ED000A48790B7940EA032000B262
:1033300000EE100AB8EEC00A3D48007800EBC0006D
:103340003E4B03EB800080ED050A887900EE100A01
:10335000B8EE400A3648007800EBC00003EB80006E
:1033600080ED060A46E033480078022842D14878CA
:103370000B7840EA032000B200EE100AB8EEC00A53
:103380002D48007800EBC0002D4B03EB800080ED52
:10339000010AC8788B7840EA032000B200EE100AD8
:1033A000B8EEC00A2448007800EBC000244B03EBC1
:1033B000800080ED000A48790B7940EA032000B2D2
:1033C00000EE100AB8EEC00A1B48007800EBC000FF
:1033D0001B4B03EB800080ED050A887900EE100A94
:1033E000B8EE400A1448007800EBC00003EB800000
:1033F00080ED060A01206CE700B585B002210B487C
:1034000002F072F940B30F4890ED000AF7EE000A9F
:1034100030EE200A80ED000A0221044802F0FFF994
:103420006A46002101480FE0000C024000640040A1
:10343000E0060020E2060020E106002080350020A2
:1034400058360020DC06002001F0CBFF009988B23E
:103450000DF10B01FFF7F6FE05B000BD00EBC0015A
:10346000394A02EB8101D1ED011A00EBC00102EBF8
:10347000810191ED032A71EEC21A00EBC00102EB4B
:103480008101C1ED041A00EBC00102EB8101D1ED15
:10349000041AB1EE402AF4EEC21AF1EE10FA10D27C
:1034A00000EBC00102EB8101D1ED071AB7EE002A53
:1034B00071EE821A00EBC00102EB8101C1ED071A27
:1034C0001BE000EBC001204A02EB8101D1ED041AA0
:1034D000F4EEC01AF1EE10FA0FDD00EBC00102EBC2
:1034E0008101D1ED071AB7EE002A71EEC21A00EB86
:1034F000C00102EB8101C1ED071A00EBC001124AC5
:1035000002EB8101D1ED011A70EEE11A00EBC0016E
:1035100002EB810191ED072AF1EE412A42EE821A77
:1035200000EBC00102EB8101C1ED081A00EBC00104
:1035300002EB8101D1ED011A00EBC00102EB810128
:10354000C1ED031A704700008035002000B58BB034
:103550000121022001F02CF80121480601F071F848
:103560000121880601F06DF8092206214E4800F07D
:103570000CFE092205214C4800F007FE6020029055
:1035800002208DF80C0000208DF80E0003208DF82D
:103590000D0000208DF80F0002A9434800F06AFDDD
:1035A00040208DF8040001208DF8050000208DF8E2
:1035B000060001208DF8070001A800F06AFC3F20FA
:1035C0008DF8040001208DF805008DF806008DF8B7
:1035D000070001A800F05DFC344801F07BFC08A85E
:1035E00001F09CFD00208DF826008DF827008DF855
:1035F00028008DF829008DF82A0001208DF82B0075
:1036000000208DF822008DF8230008208DF824007A
:1036100003208DF82500ADF8200008A9234801F00B
:1036200072FC0E208DF81A0000208DF81B0001207E
:103630008DF81C000020ADF81000ADF81200ADF8B8
:103640001400ADF81600ADF8180001208DF81D002B
:1036500004A801F0E2FC01220221144801F0DCFF81
:1036600001221146114801F0D7FF0BB000BD00B593
:1036700085B002210D4802F037F840B102210B4815
:1036800002F0CDF86A460021084801F0AAFE05B014
:1036900000BD10B50121054802F026F818B101213E
:1036A000024802F0BCF810BD00040240006800406F
:1036B00000B597B00121C44800F07AFF0121480409
:1036C00000F0BFFF07220321C04800F05EFD082084
:1036D000149002208DF8540000208DF8560003202D
:1036E0008DF8550000208DF8570014A9B74800F058
:1036F000C1FCB74801F09CF8B64801900020ADF835
:103700000800ADF80A004FF48060ADF80C0004200A
:10371000ADF80E000020ADF8100001A9AC4801F092
:10372000EEF80121AA4801F072F901224021A848CF
:1037300001F01AFA10208DF8580001208DF8590078
:103740008DF85A008DF85B0016A800F0A2FBA24885
:1037500002F0B8F84FF0006005909D48001D0690FB
:103760009E480790002008901220099000200A909F
:103770004FF480600B9000200C900D904FF48070FF
:103780000E904FF440300F90002010901190129046
:10379000139005A9904802F037F9012210218E48B4
:1037A00002F0F9F901218C4802F068F917B000BD68
:1037B00010B58B4890ED000AF7EE000A30EE200AB3
:1037C00080ED000A8749844802F002FA00287DD083
:1037D0008549814802F0CBF982497F4802F022FAFC
:1037E0007E4800787D49497840EA0120C0F30A000C
:1037F000A0F580607D49088078484078C0107749FE
:10380000897840EA4110C0F30A00A0F5806077494A
:1038100048807248807880117049C97840EA8100F8
:103820006E49097940EA8120C0F30A00A0F5806062
:103830006E4988806948007940106849497940EAB2
:10384000C110C0F30A00A0F580606849C8806348D1
:10385000407900118008087260484079C0F3011077
:1038600048725E4880795D49C97940EA012000B21A
:103870005E4988815948007A5849497A40EA0120CE
:1038800001B25A48C1815548807A5449C97A40EA00
:10389000012001B2554801825048017B5348817490
:1038A0004E48417B5148C1744C48807B4B49C97B91
:1038B00040EA01204D4988824848007C4749497CBC
:1038C00040EA0120C0F30A00484900E07BE048815B
:1038D0000846B0F90600012807DC0846B0F90600E2
:1038E000B0F1FF3F01DB0020C8804048B0F9040080
:1038F000012808DC3D48B0F90400B0F1FF3F02DBCD
:1039000000203A4988803948B0F90200012808DCD3
:103910003648B0F90200B0F1FF3F02DB0020334926
:1039200048803248B0F90000012808DC2F48B0F97F
:103930000000B0F1FF3F02DB00202C4908802B483B
:10394000B0F90000B0F5257F29DC2848B0F9000067
:1039500010F5257F23DB2548B0F90200B0F5257F5F
:103960001DDC2248B0F9020010F5257F17DB1F4847
:10397000B0F90400B0F5257F11DC1C48B0F9040053
:1039800010F5257F0BDB1948B0F90600B0F5257F4F
:1039900005DC1648B0F9060010F5257F09DA00208D
:1039A0001249C880888048800880042010498870A7
:1039B00002E002200E498870FCF7F4FD47F2305116
:1039C00008440C49086010BD0100200000000240BE
:1039D00000440040A086010088600240C4360020F8
:1039E000E40600200088002000080020DE360020C9
:1039F0001C100020000000201CB50121042000F054
:103A0000D7FD00208DF8070002208DF80500012069
:103A10008DF804004FF4D840009069460B4800F040
:103A200029FB4FF40061094800F0A0FB4FF400614E
:103A3000064800F09BFB4FF40051044800F096FB51
:103A40004FF48041014800F091FB1CBD000802408A
:103A500010B50121080300F0ABFD10BD30B50346E1
:103A600005E013F8010B80EA02043E48025D081EDF
:103A7000A1F10101F5D1104630BD70B505460C46E7
:103A800000260DB1022C01D8002070BD611EFF225E
:103A90002846FFF7E3FF0646601E285CB04201D1CE
:103AA0000120F2E70020F0E770B505460C4600263D
:103AB0000DB1022C00D870BD611EFF222846FFF711
:103AC000CDFF0646601E2E5400BFF4E730B5034616
:103AD00013B94FF6FF7030BD09E013F8014B82EACD
:103AE0000400C0B2204D35F8100080EA2222081EE2
:103AF000A1F10101F1D11046EDE770B505460C4684
:103B000000260DB1022C01D8002070BDA11E17485F
:103B100002882846FFF7DAFF0646F1B2A01E285CAD
:103B2000814206D1601E285CB0EB162F01D1012026
:103B3000EBE70020E9E770B505460C4600260DB11D
:103B4000022C00D870BDA11E084802882846FFF745
:103B5000BDFF0646A01E2E54310A601E295400BF28
:103B6000F0E700000535010806360108E8060020E8
:103B700000B587B00121084600F01AFD0121C804F4
:103B800000F05FFD08220021BC4800F0FEFA082288
:103B90000121BA4800F0F9FA0320059002208DF8BF
:103BA000180003208DF8190000208DF81A008DF8F8
:103BB0001B0005A9B14800F05DFA4FF4E130019017
:103BC0000020ADF80800ADF80A00ADF80C00ADF823
:103BD00010000C20ADF80E0001A9A94800F08FFEDE
:103BE0000121A74800F013FF07B000BDA449091D3B
:103BF000088000BFA249098801F040010029F9D0DE
:103C0000704710B510219E4800F0DCFF30B19C4891
:103C10000088C4B29A48001D0088C4B210BD70B5B7
:103C200085B003460C4615460026AA208DF80000F4
:103C30008DF8010001208DF802000C208DF80300A2
:103C4000180A8DF80400D8B28DF80500200A8DF806
:103C50000600E0B28DF80700280A8DF80800E8B2E7
:103C60008DF8090000208DF80A008DF80B008DF802
:103C70000C008DF80D008DF80E008DF80F0000225D
:103C800005E01DF80200304486B2501CC2B2102A72
:103C9000F7DBF0B28DF810007A48008841F28831E5
:103CA00088420EDA002205E01DF80200FFF79EFFB1
:103CB000501CC2B2112AF7DB72480088401C7149BF
:103CC000088005B070BD2DE9F04F87B004460D4661
:103CD000164610AF97E880074FF0000BAA208DF82A
:103CE00000008DF8010002208DF8020012208DF8EE
:103CF0000300200A8DF80400E0B28DF80500280AC0
:103D00008DF80600E8B28DF80700300A8DF808003B
:103D1000F0B28DF80900180A8DF80A00D8B28DF8B3
:103D20000B00380A8DF80C00F8B28DF80D004FEA40
:103D300018208DF80E0008F0FF008DF80F004FEAF4
:103D400019208DF8100009F0FF008DF811004FEADE
:103D50001A208DF812000AF0FF008DF81300149855
:103D6000000A8DF814001498C0B28DF815000022D6
:103D700006E01DF8020058441FFA80FB501CC2B236
:103D8000162AF6DB0BF0FF008DF81600002205E086
:103D90001DF80200FFF72AFF501CC2B2172AF7DBFA
:103DA00007B0BDE8F08F00B52DED060B88B00023FD
:103DB000AA208DF800008DF8010001208DF8020086
:103DC00018208DF8030008980190099802900A982D
:103DD00003900B9804900C9805900D980690002283
:103DE00005E01DF80200184483B2501CC2B21C2A20
:103DF000F7DBD8B28DF81C00002205E01DF80200A8
:103E0000FFF7F4FE501CC2B21D2AF7DB0EB000BD56
:103E100000B52DED060B88B00023AA208DF8000018
:103E20008DF8010002208DF8020018208DF80300A3
:103E300008980190099802900A9803900B980490B2
:103E40000C9805900C980690002205E01DF80200E1
:103E5000184483B2501CC2B21C2AF7DBD8B28DF8CA
:103E60001C00002205E01DF80200FFF7BFFE501CF9
:103E7000C2B21D2AF7DB0EB000BD70470000024041
:103E8000004C0040EA06002032490143324A1160EA
:103E9000704770B5002100230F22C4781CB32E4C4C
:103EA000246804F4E064C4F5E064C4F30721C1F1BC
:103EB0000404E3B20A4144789C40E1B2847814409F
:103EC00021430C07210E254C05786155047804F038
:103ED0001F050124AC4005786D11AD0005F1E0250A
:103EE000C5F8004109E0047804F01F050124AC4046
:103EF0001B4D0678761145F8264070BD194A0A40D8
:103F00000243154B1B1F1A60704739B1124A121D2C
:103F100012680243104B1B1D1A6006E00E4A121D68
:103F2000126882430C4B1B1D1A607047042808D18D
:103F30004FF0E021096941F004014FF0E0221161E6
:103F400007E04FF0E021096921F004014FF0E02281
:103F5000116170470000FA050CED00E000E400E09C
:103F600080E100E080FFFF1F10B5044698488442BE
:103F700008D10121084600F086FB0021012000F055
:103F800082FB76E09348844208D10121022000F0B0
:103F90007AFB0021022000F076FB6AE08E48844222
:103FA00008D10121042000F06EFB0021042000F064
:103FB0006AFB5EE08948844208D10121082000F0B4
:103FC00062FB0021082000F05EFB52E0844884423E
:103FD00008D10121102000F056FB0021102000F034
:103FE00052FB46E07F48844208D10121202000F0A6
:103FF0004AFB0021202000F046FB3AE07A48844248
:1040000008D10121402000F03EFB0021402000F0BB
:104010003AFB2EE07548844208D10121802000F04F
:1040200032FB0021802000F02EFB22E07048844209
:1040300008D10121801500F026FB0021A01500F019
:1040400022FB16E06B48844208D10121401500F0A4
:104050001AFB0021601500F016FB0AE06648844256
:1040600007D10121001500F00EFB0021201500F002
:104070000AFB10BDF0B50A4600210023002400BF52
:104080003DE0012505FA01F3156805EA03049C42A9
:1040900034D105684F000326BE40B543056015794D
:1040A0004E00B5400668354305601579012D02D0F4
:1040B0001579022D16D185684F000326BE40B54301
:1040C000856055794E00B540866835438560456802
:1040D00001268E40B5434560456896798E40B6B25C
:1040E00035434560C5684F000326BE40B543C560F3
:1040F000D5794E00B540C6683543C560491C1029C6
:10410000BFD3F0BD4FF6FF71016000210171417115
:104110008171C171704708B54FF480320092009AE6
:104120000A430092009AC261C161009AC261C269E9
:104130000092C269009208BD0246002013690B403C
:104140000BB1012000E0002070470146086980B2F1
:1041500070470246002053690B400BB1012000E07C
:10416000002070470146486980B27047018370475C
:10417000418370470AB1018300E041837047416188
:10418000704742694A4042617047F0B500230024FD
:104190004D07ED0E02FA05F3CE1000F1200555F89B
:1041A00026504E07F70E0F26BE40B543CF1000F144
:1041B000200646F82750CE1000F1200555F826506D
:1041C00045EA0304CE1000F1200545F82640F0BD75
:1041D000000002400004024000080240000C0240BF
:1041E000001002400014024000180240001C02406F
:1041F000002002400024024000280240F9480068E4
:1042000040F00100F74908600020F64908310860D5
:10421000F4480068F4490840F2490860F348091D71
:104220000860F348EF4984310860F0481038091DF0
:104230000860EC48006820F48020EA49086000200B
:10424000E8490C310860E7498C310860704700216B
:10425000E44A921C117011460870704710B501466F
:104260000022002300204A11012A02D1DD4C2368DC
:1042700008E0022A03D1DB4C7034236802E0D94CF9
:104280007434236801F01F02012494401C400CB1D7
:10429000012000E0002010BD38B50020009000246F
:1042A000002500BF3120FFF7D9FF05460098401CCC
:1042B00000900098B0F5A04F01D0002DF2D0312031
:1042C000FFF7CCFF08B1012400E00024204638BDF0
:1042D00001460020C34A106820F0F80040EAC100FF
:1042E00010607047C349086070470021BD4A7032B2
:1042F00011701170012802D004280AD104E00121B4
:10430000B84A7032117005E00521B64A703211705A
:1043100000E000BF00BF7047B7490860704770B544
:10432000049C41EA82150126C6EB530645EA064580
:10433000054345EA0465AB4E361D356070BDAD4999
:1043400008667047820142EA0172A64B84331A6004
:104350007047A8498866704710B5830143EA016336
:1043600043EA02739F4C8834236010BDA14908675B
:104370007047A049C864704702460020994B083333
:10438000186820F0EC6042EA01031843954B0833AB
:104390001860704702460020924B0833186820F0DE
:1043A000784042EA010318438E4B08331860704787
:1043B000014600208B4A0832106820F003000843B1
:1043C0001060704787480830006800F00C007047A4
:1043D00001460020834A0832106820F0F0000843AC
:1043E00010607047014600207E4A0832106820F4B1
:1043F000E05008431060704701460020794A0832B7
:10440000106820F4604040EAC10010607047F0B5C9
:10441000002100220024022500260223714F0837C4
:104420003F6807F00C0121B1042905D0082937D1D4
:1044300005E0724F076036E0714F076033E0694F67
:104440003F1D3F68C7F38056664F3F1D3F6807F02A
:104450003F036EB16A4FB7FBF3F7DFF888C10CF189
:10446000040CDCF800C0CCF3881C07FB0CF40CE057
:10447000624FB7FBF3F7DFF86CC10CF1040CDCF80A
:1044800000C0CCF3881C07FB0CF4564F3F1D3F685F
:10449000C7F301477F1C7D00B4FBF5F7076002E01E
:1044A000564F076000BF00BF4E4F08373F6807F008
:1044B000F0010909534F7A5C0768D7404760494FBC
:1044C00008373F6807F4E051890A4E4F7A5C476825
:1044D000D7408760434F08373F6807F46041490B76
:1044E000484F7A5C4768D740C760F0BD002100F4B0
:1044F0004072B2F5407F0AD13A4A0832116821F47D
:10450000F811414A02401143364A08321160354AD7
:1045100070321268C0F30B031A43324B70331A60C7
:10452000704735494439086070473349403908605D
:10453000704736490860704701460020294A8C328E
:10454000106820F01F004A1E1043264A8C3210606B
:10455000704701460020234A8C32106820F4F8503E
:104560004A1E40EA02201F4A8C3210607047014602
:1045700000201C4A8C32106820F440100843106060
:10458000704701460020174A8C32106820F4400022
:1045900008431060704701460020124A8C321068B0
:1045A00020F4403008431060704719490860704794
:1045B00039B10C4A3032126802430A4B30331A6068
:1045C00006E0084A303212688243064B30331A60E4
:1045D0007047F9B1034A343212680243014B343355
:1045E0001A601CE000380240FFFFF6EA1030002499
:1045F0000030002000004742800E47420024F400B3
:1046000040787D01EC060020FFFCFF0F5C01474273
:10461000E0114742854A12688243844B1A60704712
:1046200039B1824A121D12680243804B1B1D1A6069
:1046300006E07E4A121D126882437C4B1B1D1A60E5
:10464000704739B1794A0C3212680243774B0C3308
:104650001A6006E0754A0C3212688243734B0C33C1
:104660001A60704739B1714A1032126802436F4BB9
:1046700010331A6006E06D4A1032126882436B4BA9
:1046800010331A60704739B1684A243A12680243FD
:10469000664B243B1A6006E0644A243A126882435F
:1046A000624B243B1A60704739B1604A203A126865
:1046B00002435E4B203B1A6006E05C4A203A1268D7
:1046C00082435A4B203B1A60704739B1574A1C3A13
:1046D00012680243554B1C3B1A6006E0534A1C3AD1
:1046E00012688243514B1C3B1A60704739B14F4AE4
:1046F000143A126802434D4B143B1A6006E04B4AD1
:10470000143A12688243494B143B1A60704739B11E
:10471000464A103A12680243444B103B1A6006E0C6
:10472000424A103A12688243404B103B1A6070476D
:1047300039B13E4A1C32126802433C4B1C331A60AA
:1047400006E03A4A1C3212688243384B1C331A6026
:10475000704739B1354A203212680243334B203357
:104760001A6006E0314A2032126882432F4B203310
:104770001A60704739B12D4A2432126802432B4B1C
:1047800024331A6006E0294A243212688243274BF8
:1047900024331A60704739B1244A2C32126802431C
:1047A000224B2C331A6006E0204A2C3212688243D6
:1047B0001E4B2C331A60704739B11C4A30321268D4
:1047C00002431A4B30331A6006E0184A303212683E
:1047D0008243164B30331A60704739B1134A273A77
:1047E00012780243114B273B1A7006E00F4A273A12
:1047F000127882430D4B273B1A7070470B484030AC
:10480000006840F0807009494031086070470146F7
:104810000020064A283A12680A400AB1012000E046
:10482000002070470149263908707047343802402B
:1048300010B50446FA48844208D101211020FFF740
:1048400066FF00211020FFF762FF57E0F548844221
:1048500009D101214804FFF749FF00214FF400303E
:10486000FFF744FF4AE0F048844209D1012188045F
:10487000FFF73CFF00214FF48020FFF737FF3DE0BA
:10488000EA48844209D10121C804FFF72FFF002123
:104890004FF40020FFF72AFF30E0E548844209D1B9
:1048A00001210805FFF722FF00214FF48010FFF7D8
:1048B0001DFF23E0DF48844208D101212020FFF7BB
:1048C00026FF00212020FFF722FF17E0DA4884426C
:1048D00009D101218807FFF709FF00214FF080402F
:1048E000FFF704FF0AE0D548844207D101214005C3
:1048F000FFF7FCFE00216005FFF7F8FE10BD2DE973
:10490000FF4705460E460024A14600BFA046B089D9
:1049100000B100BF2C8A24F44054F08804432C8258
:10492000AC8941F20C608443B088318908437189B5
:1049300008430443AC81AC8A24F44074B089044336
:10494000AC826846FFF763FDB548854202D0B9489E
:10495000854202D1DDF80C9001E0DDF80890A889CD
:1049600000F4004040B109EBC90000EB09103168C8
:104970004900B0FBF1F707E009EBC90000EB0910B3
:1049800031688900B0FBF1F76420B7FBF0F0040157
:104990002009642101FB1078A88900F4004040B18F
:1049A000322000EBC800B0FBF1F000F00700044338
:1049B00008E0322000EB08106421B0FBF1F000F0B9
:1049C0000F0004432C81BDE8FF874FF416510160AE
:1049D00000218180C18001810C21418100218181E0
:1049E000704710B502460020108A20F470600B88D2
:1049F0004C8823438C882343CC882343184310825C
:104A000010BD0021018041808180C180704721B1AB
:104A1000828942F40052828104E082894DF6FF735C
:104A20001A4082817047028B02F47F420283028B1C
:104A30000A430283704721B1828942F40042828195
:104A400003E08289C2F30E028281704721B1828A1B
:104A500042F40062828204E0828A4FF2FF731A40BD
:104A600082827047C1F308028280704701468888BD
:104A7000C0F308007047028A4FF6F0731A400282B2
:104A8000028A0A430282704721B1828942F00202FF
:104A9000828104E082894FF6FD731A40828170475B
:104AA00082894FF2FF731A40828182890A43828190
:104AB0007047028A4FF6DF731A400282028A0A4365
:104AC0000282704721B1028A42F48042028204E0ED
:104AD000028A4BF6FF731A4002827047818941F0C7
:104AE00001018181704721B1828A42F008028282ED
:104AF00004E0828A4FF6F7731A4082827047028B75
:104B0000D2B20283028B42EA01220283704721B1B2
:104B1000828A42F02002828204E0828A4FF6DF73AA
:104B20001A408282704721B1828A42F0100282824A
:104B300004E0828A4FF6EF731A4082827047828ABD
:104B40004FF6FB731A408282828A0A438282704740
:104B500021B1828A42F00202828204E0828A4FF608
:104B6000FD731A40828270471AB1838A0B43838295
:104B700002E0838A8B4383827047F0B503460024AA
:104B800000260025002040F66A17B94200D100BF78
:104B90001846C1F3421401F01F06012707FA06F573
:104BA000012C01D10C3004E0022C01D1103000E0C6
:104BB00014301AB107682F43076002E00768AF435B
:104BC0000760F0BD02460020B1F5007F00D100BFB4
:104BD00013880B400BB1012000E00020704701F466
:104BE0000072B2F5007F00D100BFCA430280704757
:104BF00070B50246002400230025002040F66A1606
:104C0000B14200D100BFC1F3421501F01F030126DC
:104C100006FA03F3012D13D19689334017E0000003
:104C2000001001400044004000480040004C00409B
:104C3000005000400014014000780040007C00401B
:104C4000022D02D1168A334001E0968A33400C12BD
:104C5000012606FA04F41688344013B10CB1012081
:104C600000E0002070BD10B50022002340F66A1459
:104C7000A14200D100BF0A1201249440A3B2DC4338
:104C8000048010BD0948804709480047FEE7FEE759
:104C9000FEE7FEE7FEE7FEE7FEE7FEE7FEE7FEE7EC
:104CA00004480549054A064B70470000A14D00081D
:104CB0008901000818390020183F0020183B002007
:104CC000183B00200CB50020019000907648006849
:104CD00040F480307449086000BF7348006800F4F5
:104CE000003000900198401C0190009818B901987C
:104CF000B0F5A04FF1D16C48006800F4003010B15D
:104D00000120009001E0002000900098012846D189
:104D100065484030006840F0805063494031086089
:104D20006248006840F44040604908605E480830CE
:104D300000685D49083108600846006840F400409A
:104D400008600846006840F4A05008605848091FF1
:104D50000860081F006840F08070091F086000BFED
:104D60005148006800F000700028F9D040F205605A
:104D7000504908604C480830006820F003004A4958
:104D8000083108600846006840F00200086000BF73
:104D900045480830006800F00C000828F8D10CBD28
:104DA00010B54548006840F47000434908603E482B
:104DB000006840F001003C49086000203A49083191
:104DC0000860394800683D490840374908603C4858
:104DD000091D0860081F006820F48020091F086072
:104DE000002031490C310860FFF76CFF4FF0006084
:104DF00031498039086010BD70B5002000220223BF
:104E000000240221284D08352D6805F00C0020B142
:104E1000042806D0082834D107E02A4D2A4E3560F0
:104E200033E02A4D284E35602FE01F4D2D1D2D6893
:104E3000C5F380541C4D2D1D2D6805F03F0154B164
:104E4000224DB5FBF1F5184E361D3668C6F38816AF
:104E500005FB06F209E01B4DB5FBF1F5124E361DC0
:104E60003668C6F3881605FB06F20F4D2D1D2D681A
:104E7000C5F301456D1C6B00B2FBF3F5124E3560B6
:104E800003E0104D104E356000BF00BF064D0835E1
:104E90002D68C5F303150E4E705D0B4D2D68C54092
:104EA000094E356070BD00000038024000700040BF
:104EB00019544007003C024088ED00E0FFFFF6FE79
:104EC000103000240024F400FC06002040787D010E
:104ED0000007002010B50446FE48844209D1012194
:104EE0004806FFF703FC00214FF00070FFF7FEFBC0
:104EF00008E001218806FFF7F9FB00214FF08060F0
:104F0000FFF7F4FB10BD30B5024600200023146803
:104F100024F002041460146844F00104146000E0FA
:104F20005B1C546804F001041CB94FF6FF74A342E3
:104F3000F6D1546804F001040CB900206CE08C79BF
:104F4000012C04D1146844F08004146003E0146858
:104F500024F080041460CC79012C04D1146844F04E
:104F60004004146003E0146824F0400414600C7AD8
:104F7000012C04D1146844F02004146003E0146888
:104F800024F0200414604C7A012C04D1146844F0FD
:104F90001004146003E0146824F0100414608C7A88
:104FA000012C04D1146844F00804146003E0146870
:104FB00024F008041460CC7A012C04D1146844F065
:104FC0000404146003E0146824F0040414608C7872
:104FD000A407CD7844EA05640D7944EA05444D7987
:104FE00044EA05540D886D1E2C43D461146824F0E6
:104FF00001041460002300E05B1C546804F0010409
:105000001CB14FF6FF74A342F6D1546804F00104BA
:105010000CB1002000E0012030BD10B50021837AE2
:10502000012202FA03F1AC4A126842F00102AA4BD3
:105030001A60A94A1C3212688A43A74B1C331A60B3
:10504000027BCAB9A44A0C3212688A43A24B0C33C1
:105050001A604288C38842EA03439F4A4032847AF6
:1050600042F834300288838842EA03439A4A403245
:10507000847A02EBC4025360027B012A19D1964A5A
:105080000C3212680A43944B0C331A60428803882E
:1050900042EA0343904A4032847A42F83430C2886C
:1050A000838842EA03438C4A4032847A02EBC4028A
:1050B0005360C27A3AB9884A121D12688A43864BF5
:1050C0001B1D1A6006E0844A121D12680A43824BB7
:1050D0001B1D1A60028932B97F4A143212688A4352
:1050E0007D4B14331A600289012A06D17A4A1432A0
:1050F00012680A43784B14331A60427B012A06D1A6
:10510000754A1C3212680A43734B1C331A60724A88
:10511000126822F00102704B1A6010BD00218171EB
:10512000C171017241728172C1728170C1700321BB
:1051300001710221417101210180704766490968AE
:1051400041F00101644A11601146096843F60E728C
:105150009143614A11601146096841EA00211160DA
:105160001146096821F001011160704721B1026800
:1051700042F48032026003E0026822F4803202606E
:105180007047E1B1026842F0800202604FF4C272DF
:10519000125842F480734FF4C27213504FF4CA7223
:1051A000125842F480734FF4CA7213504FF4D27203
:1051B000125842F480734FF4D27213501BE002680D
:1051C00022F0800202604FF4C272125822F48073FF
:1051D0004FF4C27213504FF4CA72125822F4807303
:1051E0004FF4CA7213504FF4D272125822F48073E3
:1051F0004FF4D2721350704710B5024600209368E6
:1052000003F08063B3F1806F00D110E0936803F086
:105210000063B3F1006F01D1012008E0936803F04F
:105220008053B3F1805F01D1022000E00420042804
:1052300079D002F5C07303EB00131B6803F001047F
:1052400002F5C07303EB00131C600B7A7BB94B7A39
:105250000C8843EA445302F5C07404EB001424683C
:10526000234302F5C07404EB0014236010E00B7AB2
:105270004C6843EAC4034C7A234302F5C07404EB40
:1052800000142468234302F5C07404EB0014236067
:105290008B7A03F00F038B7202F5C07303EB0013DC
:1052A0005B6823F00F0402F5C07303EB00135C602E
:1052B00002F5C07303EB00135B688C7A234302F59D
:1052C000C07404EB001463608B7B1C064B7B44EAC8
:1052D000034403E000640040006600400B7B44EAA6
:1052E0000323CC7A234302F5C07404EB0014A360BB
:1052F0008B7C1C064B7C44EA03440B7C44EA03236E
:10530000CC7B234302F5C07404EB0014E36002F588
:10531000C07303EB00131B6843F0010402F5C07374
:1053200003EB00131C6010BD10B50246002321B131
:10533000012907D002290FD109E09068F94C00EA51
:1053400004030BE09068F84C00EA040306E0906860
:10535000F64C00EA040301E0002300BF00BFF44C58
:10536000181BA34216D007DC83B16FF0806018448D
:1053700070B1022818D111E0B0F5007F10D0ED4CCB
:10538000204448B1B0F5003F0ED10BE002230DE000
:1053900000230BE0002309E0002307E0012305E0E0
:1053A000012303E0012301E0002300BF00BFD8B2C6
:1053B00010BD21B1012907D002290FD109E082686F
:1053C00042F0800282600AE0826842F40042826019
:1053D00005E0826842F40002826000E000BF00BF86
:1053E000704710B500F5D87303EB01131B6803F089
:1053F00004031372137A53B900F5D87303EB011346
:105400001B6840F2FF7404EA5353136009E000F58F
:10541000D87303EB01131B686FF0604404EAD303F5
:10542000536000F5D87303EB01131B6803F002030C
:10543000537200F5D87303EB01135B6803F00F039D
:10544000937200F5D87303EB01135B681B0AD374E6
:1054500000F5D87303EB01139B68D37200F5D87382
:1054600003EB01139B681C0A147300F5D87303EB5C
:1054700001139B681C0C547300F5D87303EB0113E4
:105480009B681B0E937300F5D87303EB0113DB6865
:10549000D37300F5D87303EB0113DB681C0A147493
:1054A00000F5D87303EB0113DB681C0C547400F592
:1054B000D87303EB0113DB681B0E937421B9C36827
:1054C00043F02003C36003E0036943F0200303615A
:1054D00010BD21B9C26842F02002C26003E0026937
:1054E00042F02002026170470246002019B9D368D9
:1054F00003F0030006E0012903D1136903F0030060
:1055000000E00020704710B502460B4600204FF621
:10551000FF71BBB9146824F0020444F00104146064
:1055200000E0491E546804F00304012C01D0002956
:10553000F7D1546804F00304012C01D0002032E0BC
:10554000012030E0012B13D1146824F0030414600F
:1055500000E0491E546804F003040CB10029F8D19E
:10556000546804F003040CB100201CE001201AE090
:10557000022B17D1146824F0010444F002041460D3
:1055800000E0491E546804F00304022C01D00029F5
:10559000F7D1546804F00304022C01D0002002E08B
:1055A000012000E0002010BD014600200A6822F022
:1055B000010242F002020A604A6802F00302022A73
:1055C00000D10120704701464FF6FF7200200B68A2
:1055D00023F002030B6000E0521E4B6803F002034D
:1055E000022B01D1002AF7D14B6803F00203022BF2
:1055F00000D001207047014600208A6902F0700047
:105600007047014600208A69100E7047014600204D
:105610008A69C2F3074070471AB143690B4343617B
:1056200002E043698B434361704710B50246002096
:1056300001F4700343B19369C1F3130423400BB128
:1056400001202DE000202BE001F0807343B153686E
:10565000C1F3130423400BB1012021E000201FE01F
:1056600001F0006343B19368C1F3130423400BB10D
:10567000012015E0002013E001F0007343B1D3686E
:10568000C1F3130423400BB1012009E0002007E01F
:105690001369C1F3130423400BB1012000E0002083
:1056A00010BD0022244B994202D10023836111E0F6
:1056B000C1F3130201F000730BB1C2600AE001F004
:1056C00080630BB1026105E001F000630BB1826001
:1056D00000E0426070470246002002EA01030BB17D
:1056E000012000E00020704770B504460D460026FA
:1056F00060692840002872D0B5F5807F69D01DDC34
:10570000082D42D006DC012D2DD0022D31D0042DE4
:105710007FD134E0102D3ED0202D42D0402D78D1C5
:1057200045E000000300000400030008000003102F
:10573000000100080001FFF77000F030B5F5004FE0
:1057400061D009DCB5F5007F4AD0B5F5806F4DD04A
:10575000B5F5006F5DD150E0B5F5803F2DD0B5F5C2
:10576000003F56D12FE0A0685549FFF7B4FF064629
:1057700051E0E0680321FFF7AEFF06464BE0E0682A
:105780000821FFF7A8FF064645E0E0681021FFF773
:10579000A2FF06463FE020690321FFF79CFF064673
:1057A00039E020690821FFF796FF064633E02069BB
:1057B0001021FFF790FF06462DE060680821FFF7F3
:1057C0008AFF064627E060681021FFF784FF06463F
:1057D00021E0A0690121FFF77EFF06461BE01BE0E8
:1057E000A0690221FFF777FF064614E0A0690421B3
:1057F000FFF771FF06460EE00BE0A0697021FFF78E
:105800006AFF064607E060680421FFF764FF06466A
:1058100001E0002600BF00E00026304670BDB1F573
:10582000007F3AD00FDC202928D006DC01291CD0CB
:1058300004291DD0082940D11DE0402921D0B1F50F
:10584000807F3AD126E0B1F5004F31D006DCB1F5CA
:10585000806F25D0B1F5006F2FD124E0B1F5803FE6
:1058600012D0B1F5003F28D111E0154A826025E041
:105870000822C26022E01022C2601FE008220261FA
:105880001CE01022026119E00822426016E010229A
:10589000426013E00422426010E0042242600DE006
:1058A000042242600AE0002282610422426005E094
:1058B000002282610422426000E000BF00BF704706
:1058C00001010100016821F0010101600021016076
:1058D00041608160C160016121214161DB498842F1
:1058E00004D13D21D94A103A91608CE0D749183152
:1058F000884205D14FF47461D44A103A916082E035
:10590000D2493031884205D14FF47411CF4A103A50
:10591000916078E0CD494831884205D14FF07461FB
:10592000CA4A103A91606EE0C8496031884204D199
:10593000C749C64A103AD16065E0C4497831884207
:1059400004D1C449C14A103AD1605CE0BF499031EA
:10595000884204D1C049BD4A103AD16053E0BB49E6
:10596000A831884205D14FF03D51B84A103AD16074
:1059700049E0BA49884204D13D21B84A083A116049
:1059800041E0B6491831884205D14FF47461B34AF9
:10599000083A116037E0B1493031884205D14FF4FF
:1059A0007411AE4A083A11602DE0AC494831884282
:1059B00005D14FF07461A94A083A116023E0A74964
:1059C0006031884204D1A249A44A121F11601AE032
:1059D000A2497831884204D19E49A04A121F116021
:1059E00011E09E499031884204D19B499B4A121F85
:1059F000116008E09949A831884204D14FF03D5127
:105A0000964A121F1160704710B500220268944B2D
:105A10001A40CC680B6823434C6923438C692343A9
:105A2000CC6923430C6A23434C6A23438C6A234387
:105A30004C6B23438C6B23431A430260426922F070
:105A40000702D1E90B3423431A4342610B694360D7
:105A50004B6883608B68C36010BD002101604160AA
:105A60008160C160016141618161C1610162416226
:105A70008162C162016341638163704721B1026841
:105A800042F00102026003E0026822F001020260BB
:105A9000704721B1026842F40042026003E00268EC
:105AA00022F400420260704721B1026842F02002F5
:105AB000026003E0026822F0200202607047416049
:105AC00070470146486880B2704722B1036843F4CA
:105AD0000023036003E0036823F4002303600161F3
